:0400000080312F28F4
:10000800803120007F08FB00911E2B288031CB20F7
:100018008031FA007A08F900770803191828790856
:10002800023A031D2B28F7017908FA007608703E7A
:10003800860087017A0881000130FA007A08F607FD
:1000480006307602031C2B28F801F80AF6017B0813
:100058002000FF00090080313128F001F101F20190
:10006800F301F401F501F601F701F801F9012000A7
:1000780080313E288031A520803178080319412835
:100088007008023A031D9D287508033A031D9D2830
:10009800F108031D6428F308031D5428043092282E
:1000A8007308013A031D5A28093092287308023A46
:1000B800031D602808309228F701F70A6130A0284C
:1000C8007108013A031D7E28F308031D6D280530C9
:1000D80092287308013A031D742822008E01A32870
:1000E8007308023A031D7A280A309228F701F70AA2
:1000F8006230A0287108023A031D9928F308031DED
:100108008728023092287308013A031D8D2806308B
:1001180092287308023A031D9528013022008E00A8
:10012800A328F701F70A6330A028F701F70A64301B
:10013800A028F701F70A65308031C3208031F80123
:1001480041283C30210099048E160E1600302300F9
:100158009C0067309B0090309D0024309E00210059
:100168000E108E100E118E110E128E1623008E0197
:1001780022008E01210091160B178B170800FC0036
:100188002000111EC4287C0823009A0008002000C3
:0A019800911ECB282300190808006F
:020000040001F9
:04000E00C4C7DFDEA6
:00000001FF
