:0400000080312F28F4
:10000800803120007F08FB00911E2B288031AA2018
:100018008031FA007A08F900770803191828790856
:10002800023A031D2B28F7017908FA007608703E7A
:10003800860087017A0881000130FA007A08F607FD
:1000480006307602031C2B28F801F80AF6017B0813
:100058002000FF00090080313128F001F101F20190
:10006800F301F401F501F601F701F801F9012000A7
:1000780080313E2880319020803186287508033AE7
:10008800031D8D28F108031D5A28F308031D4E2867
:10009800043084287308013A031D54280930842841
:1000A8007308023A031D8D28083084287108013A24
:1000B800031D7028F308031D63280530842873087E
:1000C800013A031D6A2820008E0186287308023A27
:1000D800031D8D280A3084287108023A031D8D28D3
:1000E800F308031D7928023084287308013A031D98
:1000F8007F28063084287308023A031D8D280130B2
:1001080020008E007808031986287008023A03191F
:100118004228F701F70A86283C30210099048E16F8
:100128000E16003023009C0066309B0090309D0026
:1001380024309E0021000E108E100E118E1120000A
:100148008E01210091160B178B1708002000911EB5
:08015800AA2823001908080081
:020000040001F9
:04000E00C4C7DFDEA6
:00000001FF
