:0400000080314C28D7
:10000800803120007F08F200111F252821001D10D3
:100018000930840083308500003FF000013FF10083
:1000280071081C02031D1A2870081B0203182028D7
:100038002000BC01BC0A22282000BC01C101C10A61
:100048001113911E4928833102238031F000700872
:10005800F90020003E08031936287908023A031DE2
:100068004928BE017908F0007808363E86008701E5
:10007800700881000130F0007008F8070630780237
:10008800031C4928BF01BF0AF8017208FF000900D4
:1000980080314E28F801F901B601B701B801B9015C
:1000A800BA01BB01BC01BD01BE01BF01C001833162
:1000B8000C238031C10083310D238031C20083318C
:1000C8000E23C3002000803169282000B201B3014B
:1000D800B401B501A801A901AA01AB01AC01AD01A8
:1000E800AE01AF01B001B1018231CF2280312000D1
:1000F8004108031994280B3083310A008031A40089
:10010800A50131082506031D8B283008240603198C
:1001180090283C08031994288231FC228031200061
:1001280020003C0803199C2822000E128C127B2800
:1001380020003F0803193D2A3608023A031D392AD0
:100148003B08033A031D392AB708031DC428380899
:10015800A400A501A409A509A40A0319A50A24084D
:10016800803EA6000030253DA700A609A709A60ADB
:100178000319A70A2608B83EB200FF30273DD92840
:100188003708013A031DCF283808B83EB200FF30BF
:1001980003180030D9283708023A031DDB2838082D
:1001A800383EB200003003180130B300DD28BE012C
:1001B800BE0AB908031DF9283A08A400A501A40934
:1001C800A509A40A0319A50A2408803EA600003040
:1001D800253DA700A609A709A60A0319A70A260804
:1001E800B83EB400FF30273D0E293908013A031DF7
:1001F80004293A08B83EB400FF30031800300E292D
:100208003908023A031D10293A08383EB400003074
:1002180003180130B5001229BE01BE0A3308803A1E
:10022800FF0080307F02031D1B29013032020318B2
:100238002A2920003209A4003309A500A40A0319B9
:10024800A50A2408AC002508AD0031292000330890
:10025800AD01AD073208AC01AC073508803AFF00A4
:1002680080307F02031D3A290130340203184929DE
:1002780020003409A4003509A500A40A0319A50A19
:100288002408AE002508AF00502920003508AF012A
:10029800AF073408AE01AE073409A4003509A5003C
:1002A800A40A0319A50A3308803AA6002508803A4B
:1002B8002602031D61292408320203187729200029
:1002C800C201B31F73293409A4003509A500A40A83
:1002D8000319A50A2C082407A8002D088729320924
:1002E800A40033097F292000C201C20AB31F89294B
:1002F8002C09A4002D09A500A40A0319A50A2E0893
:100308002407A8002F08253D8E2934083207A800A5
:100318003508333DA9003308803AA4003508803AEF
:100328002402031D9929340832020318BB2920002E
:10033800C301C30A3508803AFF0080307F02031DDD
:10034800A72901303402031CB62920003209A40071
:100358003309A500A40A0319A50A34082407AA002A
:100368003508D42920002E09A4002F09CC29200003
:10037800C3013508803AFF0080307F02031DC6297B
:1003880001303402031CD62920003409A4003509A1
:10039800A500A40A0319A50A2C082407AA002D08F9
:1003A800253DDC29200032082E07AA0033082F3DFE
:1003B800AB002908803AFF0080307F02031DE62940
:1003C80065302802031CED2964302000A8000030A5
:1003D800A90020002B08803AFF0080307F02031D0F
:1003E800F72965302A02031CFE2964302000AA0080
:1003F8000030AB000C30F3000030F4002000290876
:10040800F601F6072808F501F50782317B228031CD
:1004180073082000A4002408BD000C30F30000304D
:10042800F4002B08F601F6072A08F501F5078231D2
:100438007B22803173082000A4002408C0004208F1
:1004480003192A2A22000E108E142D2A22000E14B7
:100458008E10200043080319352A22000E118E152C
:100468003B2A22000E158E113B2ABE01BE0A20002F
:10047800BF013108803A803C031D442A30083D0200
:100488000318492A22000E12502A20003D08031999
:10049800502A22000E16200020003108803A803CA5
:1004A800031D582A3008400203185D2A22008C12C6
:1004B800642A200040080319642A22008C162000B0
:1004C80001302000B0070030B13D0B3083310A0005
:1004D8008231A4003108803A803C031D752A300817
:1004E800240203187B282000B001B1017B282000DA
:1004F800A101F41F862AF309F409F30A0319F40A7F
:10050800A101A10AF61F912AF509F609F50A0319AE
:10051800F60A0130F7007708A106A201A3017408C2
:1005280073040319C02AA001A00AF41BA52A0130EC
:10053800F335F40D890B9C2A0130F7007708A007E2
:10054800992A0130A235A30D890BA62A74087602D0
:10055800031DB02A73087502031CB72A7308F50235
:100568007408F63B22140130F436F30C890BB82AD0
:100578000130A002031DA52A21080319C82AA209CF
:10058800A309A20A0319A30A2308F401F4072208FD
:10059800F301F30708003C30210099048E160E166B
:1005A800003023009C0067309B0090309D00243071
:1005B8009E009E1221000C168C120E108E100E1129
:1005C8008E110E128E1623008E018C010C1622003D
:1005D8008E018C0121001D0883390C389D001E08EE
:1005E8008F3950389E00911611170B178B1708007A
:1005F8002000C10121001D149D1408002000911E37
:10060800022B23001908080000340034B0340834E1
:060618000134013401343D
:020000040001F9
:04000E00C4CFDFDE9E
:00000001FF
