:040000008031902893
:10000800803120007F08F700911C68281B08FF3A00
:10001800031D382871080319262873080319262890
:1000280073087102031C1A2873081B287108F5004D
:10003800F6017508F8007608F90078089B00220098
:100048000C163628710803192F28710820009B0008
:1000580022000C1666287308031966287308200006
:100068009B0022008C16662820001B087106031DC1
:10007800452871087306031D452822000C128C12AE
:100088005E281B087106031D542822000C127108F3
:100098007302031C5E287308031966287308642812
:1000A8001B087306031D662822008C127108730250
:1000B800031C6028FF30642871080319662871083A
:1000C80020009B0020009110911E8C2882317522FF
:1000D8008031F5007508F40072080319782874084F
:1000E800023A031D8C28F2017408F5007008303EAE
:1000F80086008701750881000130F5007508F00752
:1001080006307002031C8C282000B601B60AF001E4
:1001180077082000FF00090080319228F001F101E2
:10012800F201F301F401B001B101B201B301B4016C
:10013800B501B60182317B228031B70082317C2241
:10014800B80020008031A8282000AC01AD01AE0124
:10015800AF01A401A501A601A701A801A901AA014F
:10016800AB0182314E228031200036080319B828AD
:100178003008023A031D492A3508033A031D492A63
:10018800B108031DE0283208A000A101A009A109B7
:10019800A00A0319A10A2008803EA2000030213DD0
:1001A800A300A209A309A20A0319A30A2208B83EB8
:1001B800AC00FF30233DF5283108013A031DEB2838
:1001C8003208B83EAC00FF3003180030F52831087B
:1001D800023A031DF7283208383EAC0000300318F5
:1001E8000130AD00F928F201F20AB308031D152900
:1001F8003408A000A101A009A109A00A0319A10AB5
:100208002008803EA2000030213DA300A209A309D6
:10021800A20A0319A30A2208B83EAE00FF30233D04
:100228002A293308013A031D20293408B83EAE00B4
:10023800FF30031800302A293308023A031D2C29FD
:100248003408383EAE00003003180130AF002E29C4
:10025800F201F20A2D08803AFF0080307F02031D68
:10026800372901302C020318462920002C09A00048
:100278002D09A100A00A0319A10A2008A800210835
:10028800A9004D2920002D08A901A9072C08A801BB
:10029800A8072F08803AFF0080307F02031D5629E7
:1002A80001302E020318652920002E09A0002F090D
:1002B800A100A00A0319A10A2008AA002108AB007E
:1002C8006C2920002F08AB01AB072E08AA01AA074A
:1002D8002E09A0002F09A100A00A0319A10A2D08C0
:1002E800803AA2002108803A2202031D7D292008B5
:1002F8002C02031893292000B701AD1F8F292E095E
:10030800A0002F09A100A00A0319A10A28082007A4
:10031800A4002908A3292C09A0002D099B29200045
:10032800B701B70AAD1FA5292809A0002909A1000E
:10033800A00A0319A10A2A082007A4002B08213DB6
:10034800AA292E082C07A4002F082D3DA5002D084A
:10035800803AA0002F08803A2002031DB5292E08F4
:100368002C020318D7292000B801B80A2F08803AB0
:10037800FF0080307F02031DC32901302E02031CB9
:10038800D22920002C09A0002D09A100A00A0319D8
:10039800A10A2E082007A6002F08F02920002A0904
:1003A800A0002B09E8292000B8012F08803AFF0097
:1003B80080307F02031DE22901302E02031CF2293E
:1003C80020002E09A0002F09A100A00A0319A10AE4
:1003D80028082007A6002908213DF82920002C0814
:1003E8002A07A6002D082B3DA7002508803AFF0004
:1003F80080307F02031D022A65302402031C092A6B
:1004080064302000A4000030A50020002708803AAE
:10041800FF0080307F02031D132A65302602031C6B
:100428001A2A64302000A6000030A7008B13200091
:1004380025082404031D222AF101272A2435323EE7
:10044800A0002008F10027082604031D2D2AF30127
:10045800322A2635323EA0002008F3003708031957
:10046800392A22000E108E143C2A22000E148E10F7
:10047800200038080319442A22000E118E15472A35
:1004880022000E158E118B174B2AF201F20A20005A
:10049800B601B8283C30210099048E160E1600309B
:1004A80023009C0067309B0090309D0024309E0004
:1004B80021000C128C120E108E100E118E110E12BD
:1004C8008E1623008E018C0122008E018C010330D0
:1004D80020009C041C152100911691140B178B17F2
:1004E80008002000911E752A23001908080001340D
:0204F8000134CD
:020000040001F9
:04000E00C4CFDFDE9E
:00000001FF
