:0400000080314C28D7
:10000800803120007F08F200111F252821001D10D3
:10001800F730840082308500003FF000013FF10096
:1000280071081C02031D1A2870081B0203182028D7
:100038002000BC01BC0A22282000BC01C101C10A61
:100048001113911E49288231F0228031F000700886
:10005800F90020003E08031936287908023A031DE2
:100068004928BE017908F0007808363E86008701E5
:10007800700881000130F0007008F8070630780237
:10008800031C4928BF01BF0AF8017208FF000900D4
:1000980080314E28F801F901B601B701B801B9015C
:1000A800BA01BB01BC01BD01BE01BF01C001823163
:1000B800FA228031C1008231FB228031C2008231B4
:1000C800FC22C3002000803169282000B201B3015E
:1000D800B401B501A801A901AA01AB01AE01AF01A4
:1000E800B001B101AC01AD018231BE2280312000E6
:1000F8004108031983288231EA2280312000200038
:100108003C0803198B2822000E128C127B28200031
:100118003F0803192C2A3608023A031D282A3B08EF
:10012800033A031D282AB708031DB3283808A4007A
:10013800A501A409A509A40A0319A50A2408803E53
:10014800A6000030253DA700A609A709A60A03199D
:10015800A70A2608B83EB200FF30273DC82837084E
:10016800013A031DBE283808B83EB200FF30031814
:100178000030C8283708023A031DCA283808383E14
:10018800B200003003180130B300CC28BE01BE0A0B
:10019800B908031DE8283A08A400A501A409A5097F
:1001A800A40A0319A50A2408803EA6000030253DAC
:1001B800A700A609A709A60A0319A70A2608B83E90
:1001C800B400FF30273DFD283908013A031DF32804
:1001D8003A08B83EB400FF3003180030FD2839084B
:1001E800023A031DFF283A08383EB40000300318CD
:1001F8000130B5000129BE01BE0A3308803AFF006C
:1002080080307F02031D0A290130320203181929A0
:1002180020003209A4003309A500A40A0319A50A7D
:100228002408AE002508AF00202920003308AF01BC
:10023800AF073208AE01AE073508803AFF008030BC
:100248007F02031D292901303402031838292000B0
:100258003409A4003509A500A40A0319A50A24082D
:10026800B0002508B1003F2920003508B101B107C9
:100278003408B001B0073409A4003509A500A40A60
:100288000319A50A3308803AA6002508803A2602F1
:10029800031D502924083202031866292000C201D0
:1002A800B31F62293409A4003509A500A40A03195B
:1002B800A50A2E082407A8002F0876293209A400C9
:1002C80033096E292000C201C20AB31F78292E09FA
:1002D800A4002F09A500A40A0319A50A30082407B9
:1002E800A8003108253D7D2934083207A8003508C3
:1002F800333DA9003308803AA4003508803A240227
:10030800031D8829340832020318AA292000C301D2
:10031800C30A3508803AFF0080307F02031D962902
:1003280001303402031CA52920003209A400330936
:10033800A500A40A0319A50A34082407AA00350849
:10034800C32920003009A4003109BB292000C301BA
:100358003508803AFF0080307F02031DB52901303F
:100368003402031CC52920003409A4003509A5005E
:10037800A40A0319A50A2E082407AA002F08253D58
:10038800CB29200032083007AA003308313DAB00E2
:100398002908803AFF0080307F02031DD529653087
:1003A8002802031CDC2964302000A8000030A900C2
:1003B80020002B08803AFF0080307F02031DE629C9
:1003C80065302A02031CED2964302000AA000030A1
:1003D800AB000C30F3000030F40020002908F601CF
:1003E800F6072808F501F50782316A22803173087B
:1003F8002000A4002408BD000C30F3000030F400F5
:100408002B08F601F6072A08F501F50782316A225A
:10041800803173082000A4002408C0004208031992
:10042800192A22000E108E141C2A22000E148E1077
:10043800200043080319242A22000E118E152A2AA7
:1004480022000E158E112A2ABE01BE0A2000BF0105
:100458002D08803A803C031D332A2C083D020318DE
:10046800382A22000E123F2A20003D0803193F2A8D
:1004780022000E16200020002D08803A803C031D23
:10048800472A2C08400203184C2A22008C12532AAF
:10049800200040080319532A22008C16200001303E
:1004A8002000AC070030AD3DF93082310A008231BE
:1004B800A4002D08803A803C031D642A2C082402DD
:1004C80003187B282000AC01AD017B282000A10186
:1004D800F41F752AF309F409F30A0319F40AA101B0
:1004E800A10AF61F802AF509F609F50A0319F60A82
:1004F8000130F7007708A106A201A301740873046C
:100508000319AF2AA001A00AF41B942A0130F3357D
:10051800F40D890B8B2A0130F7007708A007882A89
:100528000130A235A30D890B952A74087602031DA4
:100538009F2A73087502031CA62A7308F50274081B
:10054800F63B22140130F436F30C890BA72A01304C
:10055800A002031D942A21080319B72AA209A30996
:10056800A20A0319A30A2308F401F4072208F301D5
:10057800F30708003C30210099048E160E1600304F
:1005880023009C0067309B0090309D0024309E0023
:1005980021000C168C120E108E100E118E110E12D8
:1005A8008E1623008E018C010C1622008E018C0100
:1005B80021001D0883390C389D001E088F395038DA
:1005C8009E00911611170B178B1708002000C10108
:1005D80021001D149D1408002000911EF02A2300FC
:1005E80019080800003480348D340834013401348B
:0205F8000134CC
:020000040001F9
:04000E00C4CFDFDE9E
:00000001FF
