:040000008A11AC2D88
:100B40005334A22D831203138C1EA72DA82DA22D82
:100B5000A92D1408AB2D0800F501F601F701F801E5
:100B60008A11A0258A11FA0083018A11CB2D8B01ED
:100B70008316031387160716193083120313930085
:100B800090309700243096008316031307108710C7
:100B90000711871108008A11B7258A11CF2D8A11F4
:100BA000CE268A117008F4007408F900E32D0A308B
:100BB0008312031387008A11CE268A117008F4006D
:100BC0007408F900E32D7908463A0319E82DE92D58
:100BD000D72DF72DF72D05308312031387008A11C7
:100BE000CE268A117008F4007408F900F72D7908F0
:100BF000423A0319FC2DFD2DEB2D0B2E0B2E093047
:100C00008312031387008A11CE268A117008F4001C
:100C10007408F9000B2E79084C3A0319102E112E86
:100C2000FF2D1F2E1F2E06308312031387008A11FB
:100C3000CE268A117008F4007408F9001F2E790876
:100C4000523A0319242E252E132E332E332E0E3016
:100C50008312031387008A11CE268A117008F400CC
:100C60007408F900332E7908493A0319382E392EC1
:100C7000272E472E472E0D308312031387008A112B
:100C8000CE268A117008F4007408F900472E7908FE
:100C90004A3A03194C2E4D2E3B2E5B2E5B2E0B3009
:100CA0008312031387008A11CE268A117008F4007C
:100CB0007408F9005B2E7908473A0319602E612EFB
:100CC0004F2E6F2E6F2E07308312031387008A1169
:100CD000CE268A117008F4007408F9006F2E790886
:100CE000483A0319742E752E632E832E832E0F30EF
:100CF0008312031387008A11CE268A117008F4002C
:100D00007408F900832E7908533A0319882E892E26
:100D1000772E932E932E8A11CE268A117008F40016
:100D20007408F900932E7908553A0319982E992ED4
:100D30008B2EA32EA32E8A11CE268A117008F400C2
:100D40007408F900A32E7908753A0319A82EA92E64
:100D50009B2EB32EB32E8A11CE268A117008F40072
:100D60007408F900B32E7908573A0319B82EB92E32
:100D7000AB2EC32EC32E8A11CE268A117008F40022
:100D80007408F900C32E7908773A0319C82EC92EC2
:100D9000BB2ECF2DCF2DCF2D8A1100288312031308
:100DA0008C1ED32ED42EF72F8A11A1258A11F20082
:100DB0007208FA007A08463A031DDF2EE02EE52E6F
:100DC0004630F2007208F700F72F7A08423A031D06
:100DD000EA2EEB2EF02E4230F2007208F700F72FC9
:100DE0007A084C3A031DF52EF62EFB2E4C30F200FD
:100DF0007208F700F72F7A08523A031D002F012FCF
:100E0000062F5230F2007208F700F72F7A08493A9D
:100E1000031D0B2F0C2F112F4930F2007208F70021
:100E2000F72F7A084A3A031D162F172F1C2F4A3026
:100E3000F2007208F700F72F7A08473A031D212FB6
:100E4000222F272F4730F2007208F700F72F7A0879
:100E5000483A031D2C2F2D2F322F4830F2007208F4
:100E6000F700F72F7A08533A031D372F382F3D2FFD
:100E70005330F2007208F700F72F7A08303A031D5A
:100E8000422F432F462FF501F601F72F7A08313A0A
:100E9000031D4B2F4C2F512F1930F5000030F60059
:100EA000F72F7A08323A031D562F572F5C2F323016
:100EB000F5000030F600F72F7A08333A031D612F52
:100EC000622F672F4B30F5000030F600F72F7A08BD
:100ED000343A031D6C2F6D2F722F6430F5000030F3
:100EE000F600F72F7A08353A031D772F782F7D2FDC
:100EF0007D30F5000030F600F72F7A08363A031DF2
:100F0000822F832F882F9630F5000030F600F72FC0
:100F10007A08373A031D8D2F8E2F932FAF30F500AF
:100F20000030F600F72F7A08383A031D982F992FD2
:100F30009E2FC830F5000030F600F72F7A08393AB6
:100F4000031DA32FA42FA92FE130F5000030F600D8
:100F5000F72F7A08713A031DAE2FAF2FB42FFF3051
:100F6000F5000030F600F72F7A08553A031DB92F27
:100F7000BA2FBF2F5530F2007208F700F72F7A080A
:100F8000753A031DC42FC52FCA2F7530F2007208A1
:100F9000F700F72F7A08573A031DCF2FD02FD52F00
:100FA0005730F2007208F700F72F7A08773A031DDE
:100FB000DA2FDB2FF72F7730F2007208F700F72FC8
:100FC000F72FF72FF72FF72FF72FF72FF72FF72FF1
:100FD000F72FF72FF72FF72FF72FF72FF72FF72FE1
:100FE000F72FF72FF72FF72FF72FF72FF72F770878
:100FF000F200F3017208F0007308F100FF2F0800FF
:02400E00F43F7D
:00000001FF
